{
  "transactions": [
    {
      "hash": "0x8475815c072d25181ad09916d22ffcbcead1104f44734f2942014b5387859d1f",
      "transactionType": "CALL",
      "contractName": null,
      "contractAddress": "0x0000000071727de22e5e9d8baf0edac6f37da032",
      "function": "depositTo(address)",
      "arguments": [
        "0x846d83E646B8e740bDe4F5f63C0849208817Cff9"
      ],
      "transaction": {
        "from": "0xd5de8324d526a201672b30584e495c71bebb3e9a",
        "to": "0x0000000071727de22e5e9d8baf0edac6f37da032",
        "gas": "0xf606",
        "value": "0x16345785d8a0000",
        "input": "0xb760faf9000000000000000000000000846d83e646b8e740bde4f5f63c0849208817cff9",
        "nonce": "0x18d",
        "chainId": "0xaa36a7"
      },
      "additionalContracts": [],
      "isFixedGasLimit": false
    },
    {
      "hash": "0x4bac94d73f5c9b9b3b1532025494e15fb9dfa82b8086aa488074b5fada536577",
      "transactionType": "CALL",
      "contractName": null,
      "contractAddress": "0x846d83e646b8e740bde4f5f63c0849208817cff9",
      "function": "addAddress(address)",
      "arguments": [
        "0x9dCA2C8DF78752DeA4154B69659e0fc1454f9cB2"
      ],
      "transaction": {
        "from": "0xd5de8324d526a201672b30584e495c71bebb3e9a",
        "to": "0x846d83e646b8e740bde4f5f63c0849208817cff9",
        "gas": "0xfacf",
        "value": "0x0",
        "input": "0x38eada1c0000000000000000000000009dca2c8df78752dea4154b69659e0fc1454f9cb2",
        "nonce": "0x18e",
        "chainId": "0xaa36a7"
      },
      "additionalContracts": [],
      "isFixedGasLimit": false
    }
  ],
  "receipts": [
    {
      "status": "0x1",
      "cumulativeGasUsed": "0x8e8dc8",
      "logs": [
        {
          "address": "0x0000000071727de22e5e9d8baf0edac6f37da032",
          "topics": [
            "0x2da466a7b24304f47e87fa2e1e5a81b9831ce54fec19055ce277ca2f39ba42c4",
            "0x000000000000000000000000846d83e646b8e740bde4f5f63c0849208817cff9"
          ],
          "data": "0x000000000000000000000000000000000000000000000000016345785d8a0000",
          "blockHash": "0x965a6fdcacbac78e6b2a4f438a4642171bbf4a12c6756fa1524ce67f443d9238",
          "blockNumber": "0x949c8b",
          "blockTimestamp": "0x692c6088",
          "transactionHash": "0x8475815c072d25181ad09916d22ffcbcead1104f44734f2942014b5387859d1f",
          "transactionIndex": "0x3b",
          "logIndex": "0x115",
          "removed": false
        }
      ],
      "logsBloom": "0x10000000000000000000000000080000000000000000000000000000000000000000000000000000000000000000800000000000000000000000000000000000000000000000000000000000000000000040000000000000000000000000200000000000000800000000000000000000000000000000000000000000000200000000000000000000000000000000000000000000000000000000000000000000000000000000000000000000000000000000000000000000000000000000000000000000000000400000000000000000000000000000000000000000000000000040000000000000000000000000000000000000000000000000000000000000",
      "type": "0x2",
      "transactionHash": "0x8475815c072d25181ad09916d22ffcbcead1104f44734f2942014b5387859d1f",
      "transactionIndex": "0x3b",
      "blockHash": "0x965a6fdcacbac78e6b2a4f438a4642171bbf4a12c6756fa1524ce67f443d9238",
      "blockNumber": "0x949c8b",
      "gasUsed": "0xb21f",
      "effectiveGasPrice": "0xf424b",
      "from": "0xd5de8324d526a201672b30584e495c71bebb3e9a",
      "to": "0x0000000071727de22e5e9d8baf0edac6f37da032",
      "contractAddress": null
    },
    {
      "status": "0x1",
      "cumulativeGasUsed": "0x8f435d",
      "logs": [],
      "logsBloom": "0x00000000000000000000000000000000000000000000000000000000000000000000000000000000000000000000000000000000000000000000000000000000000000000000000000000000000000000000000000000000000000000000000000000000000000000000000000000000000000000000000000000000000000000000000000000000000000000000000000000000000000000000000000000000000000000000000000000000000000000000000000000000000000000000000000000000000000000000000000000000000000000000000000000000000000000000000000000000000000000000000000000000000000000000000000000000",
      "type": "0x2",
      "transactionHash": "0x4bac94d73f5c9b9b3b1532025494e15fb9dfa82b8086aa488074b5fada536577",
      "transactionIndex": "0x3c",
      "blockHash": "0x965a6fdcacbac78e6b2a4f438a4642171bbf4a12c6756fa1524ce67f443d9238",
      "blockNumber": "0x949c8b",
      "gasUsed": "0xb595",
      "effectiveGasPrice": "0xf424b",
      "from": "0xd5de8324d526a201672b30584e495c71bebb3e9a",
      "to": "0x846d83e646b8e740bde4f5f63c0849208817cff9",
      "contractAddress": null
    }
  ],
  "libraries": [],
  "pending": [],
  "returns": {},
  "timestamp": 1764515977733,
  "chain": 11155111,
  "commit": null
}