{
  "transactions": [
    {
      "hash": "0x4a73a3a98ffff0aa85e8fa982e9c17634dc570947b1c9d5732780f9d1d5c5716",
      "transactionType": "CALL",
      "contractName": null,
      "contractAddress": "0x0000000071727de22e5e9d8baf0edac6f37da032",
      "function": "depositTo(address)",
      "arguments": [
        "0x9dCA2C8DF78752DeA4154B69659e0fc1454f9cB2"
      ],
      "transaction": {
        "from": "0xd5de8324d526a201672b30584e495c71bebb3e9a",
        "to": "0x0000000071727de22e5e9d8baf0edac6f37da032",
        "gas": "0xf606",
        "value": "0x16345785d8a0000",
        "input": "0xb760faf90000000000000000000000009dca2c8df78752dea4154b69659e0fc1454f9cb2",
        "nonce": "0x18c",
        "chainId": "0xaa36a7"
      },
      "additionalContracts": [],
      "isFixedGasLimit": false
    }
  ],
  "receipts": [
    {
      "status": "0x1",
      "cumulativeGasUsed": "0x12128df",
      "logs": [
        {
          "address": "0x0000000071727de22e5e9d8baf0edac6f37da032",
          "topics": [
            "0x2da466a7b24304f47e87fa2e1e5a81b9831ce54fec19055ce277ca2f39ba42c4",
            "0x0000000000000000000000009dca2c8df78752dea4154b69659e0fc1454f9cb2"
          ],
          "data": "0x000000000000000000000000000000000000000000000000016345785d8a0000",
          "blockHash": "0x0afdf723183671595958e3bed21df0fd634302a08e4b5dd18d78c534ddf3d379",
          "blockNumber": "0x949c58",
          "blockTimestamp": "0x692c5e24",
          "transactionHash": "0x4a73a3a98ffff0aa85e8fa982e9c17634dc570947b1c9d5732780f9d1d5c5716",
          "transactionIndex": "0x3b",
          "logIndex": "0x11c",
          "removed": false
        }
      ],
      "logsBloom": "0x00000000000000000000000000000000000000000000000000000000000000000000000000000000000000000000000000000000000000000000000000000000000000000000000000000000000000000040000000000000000000000000200000000010000800000000000000000000000000000000000000000000000200000000000000000000000000000000000000000000000000000000000000000000000000000000000000000000000000000000000000000000000001000000000000000000000000400000000000000000000000000000000000000000000000000040000000000000000000000000000200000000000000000000000000000000",
      "type": "0x2",
      "transactionHash": "0x4a73a3a98ffff0aa85e8fa982e9c17634dc570947b1c9d5732780f9d1d5c5716",
      "transactionIndex": "0x3b",
      "blockHash": "0x0afdf723183671595958e3bed21df0fd634302a08e4b5dd18d78c534ddf3d379",
      "blockNumber": "0x949c58",
      "gasUsed": "0xb21f",
      "effectiveGasPrice": "0x124f8b",
      "from": "0xd5de8324d526a201672b30584e495c71bebb3e9a",
      "to": "0x0000000071727de22e5e9d8baf0edac6f37da032",
      "contractAddress": null
    }
  ],
  "libraries": [],
  "pending": [],
  "returns": {},
  "timestamp": 1764515365594,
  "chain": 11155111,
  "commit": null
}