{
  "transactions": [
    {
      "hash": "0xf1e4edb87f110c4296cd122a1ac48bb3cf1bc8da7c8270ec644b463ec80394fa",
      "transactionType": "CALL",
      "contractName": null,
      "contractAddress": "0x0000000071727de22e5e9d8baf0edac6f37da032",
      "function": "depositTo(address)",
      "arguments": [
        "0x69cdB049c2D4C9C4B5fd4B28d7494842900D9F22"
      ],
      "transaction": {
        "from": "0xd5de8324d526a201672b30584e495c71bebb3e9a",
        "to": "0x0000000071727de22e5e9d8baf0edac6f37da032",
        "gas": "0xf606",
        "value": "0x8e1bc9bf040000",
        "input": "0xb760faf900000000000000000000000069cdb049c2d4c9c4b5fd4b28d7494842900d9f22",
        "nonce": "0x187",
        "chainId": "0xaa36a7"
      },
      "additionalContracts": [],
      "isFixedGasLimit": false
    }
  ],
  "receipts": [
    {
      "status": "0x1",
      "cumulativeGasUsed": "0x98a1a4",
      "logs": [
        {
          "address": "0x0000000071727de22e5e9d8baf0edac6f37da032",
          "topics": [
            "0x2da466a7b24304f47e87fa2e1e5a81b9831ce54fec19055ce277ca2f39ba42c4",
            "0x00000000000000000000000069cdb049c2d4c9c4b5fd4b28d7494842900d9f22"
          ],
          "data": "0x000000000000000000000000000000000000000000000000008e1bc9bf040000",
          "blockHash": "0xe78120166f85df119cb533ba8111a6f72d06a5139cb0de7d8f6c1c694c00c0c9",
          "blockNumber": "0x94985c",
          "blockTimestamp": "0x692c2e48",
          "transactionHash": "0xf1e4edb87f110c4296cd122a1ac48bb3cf1bc8da7c8270ec644b463ec80394fa",
          "transactionIndex": "0x5b",
          "logIndex": "0x130",
          "removed": false
        }
      ],
      "logsBloom": "0x00000000000000000000000000000000000000000000000000000000000000000000000000000000000000000000000000000000000000000000000000000000000000000001000000000000000000000040000000000000000000000000200000000000000800000000000000000000100000000000000000000000000200000000000000000000000000000000000000000000000000000000000000000000000000000000000000000000000100000000000000000000000000000000000000000000000000400000000000000000000000000000000000000000000000000040000000000000000000000000000000000000000000000000000000000000",
      "type": "0x2",
      "transactionHash": "0xf1e4edb87f110c4296cd122a1ac48bb3cf1bc8da7c8270ec644b463ec80394fa",
      "transactionIndex": "0x5b",
      "blockHash": "0xe78120166f85df119cb533ba8111a6f72d06a5139cb0de7d8f6c1c694c00c0c9",
      "blockNumber": "0x94985c",
      "gasUsed": "0xb21f",
      "effectiveGasPrice": "0xf4240",
      "from": "0xd5de8324d526a201672b30584e495c71bebb3e9a",
      "to": "0x0000000071727de22e5e9d8baf0edac6f37da032",
      "contractAddress": null
    }
  ],
  "libraries": [],
  "pending": [],
  "returns": {},
  "timestamp": 1764503115477,
  "chain": 11155111,
  "commit": null
}