{
  "transactions": [
    {
      "hash": "0x631650893b3f302ef8f8f9f7693890693f7086b2f22e4df1d8be8ccc6319bde0",
      "transactionType": "CALL",
      "contractName": null,
      "contractAddress": "0x0000000071727de22e5e9d8baf0edac6f37da032",
      "function": "depositTo(address)",
      "arguments": [
        "0x69cdB049c2D4C9C4B5fd4B28d7494842900D9F22"
      ],
      "transaction": {
        "from": "0xd5de8324d526a201672b30584e495c71bebb3e9a",
        "to": "0x0000000071727de22e5e9d8baf0edac6f37da032",
        "gas": "0xa2cf",
        "value": "0x16345785d8a0000",
        "input": "0xb760faf900000000000000000000000069cdb049c2d4c9c4b5fd4b28d7494842900d9f22",
        "nonce": "0x188",
        "chainId": "0xaa36a7"
      },
      "additionalContracts": [],
      "isFixedGasLimit": false
    }
  ],
  "receipts": [
    {
      "status": "0x1",
      "cumulativeGasUsed": "0x5c2774",
      "logs": [
        {
          "address": "0x0000000071727de22e5e9d8baf0edac6f37da032",
          "topics": [
            "0x2da466a7b24304f47e87fa2e1e5a81b9831ce54fec19055ce277ca2f39ba42c4",
            "0x00000000000000000000000069cdb049c2d4c9c4b5fd4b28d7494842900d9f22"
          ],
          "data": "0x00000000000000000000000000000000000000000000000001f161421c8e0000",
          "blockHash": "0xc38d4ac78be37898c2067f26d4e8e53438a3a29afc56f9314ab1ca49dc6d966f",
          "blockNumber": "0x94986e",
          "blockTimestamp": "0x692c2f20",
          "transactionHash": "0x631650893b3f302ef8f8f9f7693890693f7086b2f22e4df1d8be8ccc6319bde0",
          "transactionIndex": "0x36",
          "logIndex": "0x7a",
          "removed": false
        }
      ],
      "logsBloom": "0x00000000000000000000000000000000000000000000000000000000000000000000000000000000000000000000000000000000000000000000000000000000000000000001000000000000000000000040000000000000000000000000200000000000000800000000000000000000100000000000000000000000000200000000000000000000000000000000000000000000000000000000000000000000000000000000000000000000000100000000000000000000000000000000000000000000000000400000000000000000000000000000000000000000000000000040000000000000000000000000000000000000000000000000000000000000",
      "type": "0x2",
      "transactionHash": "0x631650893b3f302ef8f8f9f7693890693f7086b2f22e4df1d8be8ccc6319bde0",
      "transactionIndex": "0x36",
      "blockHash": "0xc38d4ac78be37898c2067f26d4e8e53438a3a29afc56f9314ab1ca49dc6d966f",
      "blockNumber": "0x94986e",
      "gasUsed": "0x6f53",
      "effectiveGasPrice": "0xf423f",
      "from": "0xd5de8324d526a201672b30584e495c71bebb3e9a",
      "to": "0x0000000071727de22e5e9d8baf0edac6f37da032",
      "contractAddress": null
    }
  ],
  "libraries": [],
  "pending": [],
  "returns": {},
  "timestamp": 1764503328875,
  "chain": 11155111,
  "commit": null
}