{
  "transactions": [
    {
      "hash": "0x6926b5a073351935e85b130b89b0472255f76f05835a272c793c833ed48c9f1e",
      "transactionType": "CALL",
      "contractName": null,
      "contractAddress": "0x0000000071727de22e5e9d8baf0edac6f37da032",
      "function": "depositTo(address)",
      "arguments": [
        "0x82A623b41FD5633e42ba8F7a76218dcb4427BB91"
      ],
      "transaction": {
        "from": "0xd5de8324d526a201672b30584e495c71bebb3e9a",
        "to": "0x0000000071727de22e5e9d8baf0edac6f37da032",
        "gas": "0xf606",
        "value": "0x16345785d8a0000",
        "input": "0xb760faf900000000000000000000000082a623b41fd5633e42ba8f7a76218dcb4427bb91",
        "nonce": "0x184",
        "chainId": "0xaa36a7"
      },
      "additionalContracts": [],
      "isFixedGasLimit": false
    }
  ],
  "receipts": [
    {
      "status": "0x1",
      "cumulativeGasUsed": "0xe8c59f",
      "logs": [
        {
          "address": "0x0000000071727de22e5e9d8baf0edac6f37da032",
          "topics": [
            "0x2da466a7b24304f47e87fa2e1e5a81b9831ce54fec19055ce277ca2f39ba42c4",
            "0x00000000000000000000000082a623b41fd5633e42ba8f7a76218dcb4427bb91"
          ],
          "data": "0x000000000000000000000000000000000000000000000000016345785d8a0000",
          "blockHash": "0x761420644dcca0a4477d2675edd0d5dd8ebb15cc1f890b8ec55e4953d99d6fae",
          "blockNumber": "0x949820",
          "blockTimestamp": "0x692c2b78",
          "transactionHash": "0x6926b5a073351935e85b130b89b0472255f76f05835a272c793c833ed48c9f1e",
          "transactionIndex": "0x57",
          "logIndex": "0x15d",
          "removed": false
        }
      ],
      "logsBloom": "0x00000000000000000000000000000000000000000000000000000000000000000000000000000000000800000000000000000000000000000000000000000000000000000000002000000000000000000040000000000000000000000000200000000000000800000000000000000000000000000000000000000000000200000000000000000000000000000000000000000000000000000000000000000000000000000000000000000000000000000000000000000000000000000000000000000000000000400000000000000000000000000000000000000000000000000040000000000000008000000000000000000000000000000000000000000000",
      "type": "0x2",
      "transactionHash": "0x6926b5a073351935e85b130b89b0472255f76f05835a272c793c833ed48c9f1e",
      "transactionIndex": "0x57",
      "blockHash": "0x761420644dcca0a4477d2675edd0d5dd8ebb15cc1f890b8ec55e4953d99d6fae",
      "blockNumber": "0x949820",
      "gasUsed": "0xb21f",
      "effectiveGasPrice": "0xf424a",
      "from": "0xd5de8324d526a201672b30584e495c71bebb3e9a",
      "to": "0x0000000071727de22e5e9d8baf0edac6f37da032",
      "contractAddress": null
    }
  ],
  "libraries": [],
  "pending": [],
  "returns": {},
  "timestamp": 1764502394210,
  "chain": 11155111,
  "commit": null
}