{
  "transactions": [
    {
      "hash": "0x7232e5d9c421cbc6da7d3d1dfe7c0626dfdb1152de50e757fd2ac7c57a1fd0a8",
      "transactionType": "CALL",
      "contractName": null,
      "contractAddress": "0x0000000071727de22e5e9d8baf0edac6f37da032",
      "function": "depositTo(address)",
      "arguments": [
        "0x82A623b41FD5633e42ba8F7a76218dcb4427BB91"
      ],
      "transaction": {
        "from": "0xd5de8324d526a201672b30584e495c71bebb3e9a",
        "to": "0x0000000071727de22e5e9d8baf0edac6f37da032",
        "gas": "0xa2cf",
        "value": "0xb1a2bc2ec50000",
        "input": "0xb760faf900000000000000000000000082a623b41fd5633e42ba8f7a76218dcb4427bb91",
        "nonce": "0x186",
        "chainId": "0xaa36a7"
      },
      "additionalContracts": [],
      "isFixedGasLimit": false
    }
  ],
  "receipts": [
    {
      "status": "0x1",
      "cumulativeGasUsed": "0x4e3c27",
      "logs": [
        {
          "address": "0x0000000071727de22e5e9d8baf0edac6f37da032",
          "topics": [
            "0x2da466a7b24304f47e87fa2e1e5a81b9831ce54fec19055ce277ca2f39ba42c4",
            "0x00000000000000000000000082a623b41fd5633e42ba8f7a76218dcb4427bb91"
          ],
          "data": "0x0000000000000000000000000000000000000000000000000214e8348c4f0000",
          "blockHash": "0x97cdeb95a766cd2658659ff024cfb074bbd15f570e9eaab811024b905ff58399",
          "blockNumber": "0x949850",
          "blockTimestamp": "0x692c2db8",
          "transactionHash": "0x7232e5d9c421cbc6da7d3d1dfe7c0626dfdb1152de50e757fd2ac7c57a1fd0a8",
          "transactionIndex": "0x43",
          "logIndex": "0x63",
          "removed": false
        }
      ],
      "logsBloom": "0x00000000000000000000000000000000000000000000000000000000000000000000000000000000000800000000000000000000000000000000000000000000000000000000002000000000000000000040000000000000000000000000200000000000000800000000000000000000000000000000000000000000000200000000000000000000000000000000000000000000000000000000000000000000000000000000000000000000000000000000000000000000000000000000000000000000000000400000000000000000000000000000000000000000000000000040000000000000008000000000000000000000000000000000000000000000",
      "type": "0x2",
      "transactionHash": "0x7232e5d9c421cbc6da7d3d1dfe7c0626dfdb1152de50e757fd2ac7c57a1fd0a8",
      "transactionIndex": "0x43",
      "blockHash": "0x97cdeb95a766cd2658659ff024cfb074bbd15f570e9eaab811024b905ff58399",
      "blockNumber": "0x949850",
      "gasUsed": "0x6f53",
      "effectiveGasPrice": "0xf424b",
      "from": "0xd5de8324d526a201672b30584e495c71bebb3e9a",
      "to": "0x0000000071727de22e5e9d8baf0edac6f37da032",
      "contractAddress": null
    }
  ],
  "libraries": [],
  "pending": [],
  "returns": {},
  "timestamp": 1764502969547,
  "chain": 11155111,
  "commit": null
}